:020000040801F1
:1000000030730020E101010889850108615601086B
:10001000BD760108B50C01083DEE010800000000A6
:10002000000000000000000000000000F3010108D3
:100030008929010800000000F7010108E1E9010831
:10004000FB010108FB010108FB010108FB0101089C
:10005000FB010108FB010108FB010108FB0101088C
:10006000FB010108FB010108FB0101085D290108F2
:10007000FB010108FB010108FB010108FB0101086C
:10008000FB010108FB010108FB010108FB0101085C
:10009000FB010108FB010108FB010108FB0101084C
:1000A000FB010108FB010108FB010108FB0101083C
:1000B000FB010108FB010108FB010108FB0101082C
:1000C000FB010108FB010108FB010108FB0101081C
:1000D000FB01010825EE010831EE0108FB010108D2
:1000E000FB010108FB010108FB010108FB010108FC
:1000F000FB010108FB010108FB010108FB010108EC
:10010000FB010108FB010108FB010108FB010108DB
:100110001DEC010829EC0108FB010108FB010108A5
:10012000FB010108FB010108FB010108FB010108BB
:1001300000F002F800F045F80AA090E8000C8244B4
:100140008344AAF10107DA4501D100F03AF8AFF291
:10015000090EBAE80F0013F0010F18BFFB1A43F0A5
:10016000010318477CF600009CF60000103A24BFFB
:1001700078C878C1FAD8520724BF30C830C144BF0C
:1001800004680C607047000000230024002500264E
:10019000103A28BF78C1FBD8520728BF30C148BFEA
:1001A0000B607047642900F09F80782900F0D880A8
:1001B000732900F05083002070471FB51FBD10B594
:1001C00010BD00F0A5FB1146FFF7F7FF0FF0C8F8D0
:1001D00000F0C3FB03B4FFF7F2FF03BC00F0C8FB61
:1001E0000948804709480047FEE7FEE7FEE7FEE7CB
:1001F000FEE7FEE7FEE7FEE7FEE7FEE70448054907
:10020000054A064B70470000C1EA010831010108A8
:10021000306D002030730020306F0020306F0020E0
:100220000FB41CB5074B06AA7B446946009005989D
:1002300000F0E7FA0020694600F0F6FA1CBC5DF811
:1002400014FB0000FD05000070B5044685690068D8
:10025000C10601D5302600E02026C00707D070BDBA
:10026000D4E9012130469047206A401C20626D1E6F
:10027000F6D570BD70B5044685690078C00707D112
:1002800070BDD4E9012120209047206A401C2062E3
:100290006D1EF6D570BD70B50C460546012A05D019
:1002A0002878800600D5EA69002302E0012305E0F2
:1002B0005B1C934202D2E05C0028F9D1A869E618E1
:1002C000C01AA861286A184428622846FFF7BCFFB4
:1002D00004E0D5E9012114F8010B9047B442F8D3AA
:1002E0002846FFF7C7FF70BD2DE9F0410646002400
:1002F00010687529314616A510D0AFF3008000288C
:1003000002DA404213A507E031688A0701D512A539
:1003100002E0490704D511A5012401E0AFF30080F4
:1003200000210A2206F1240709E0B0FBF2FCB0FB31
:10033000F2F302FB1C00303078541846491C0028A8
:10034000F3D123462A463046BDE8F04100F0FBB920
:10035000000000002D0000002B0000002000000025
:1003600070B504460D4621461068AFF30080218821
:10037000090502D50F4A7A4402E00E4A7A440E3249
:10038000002104F1240305E000F00F060009965D4A
:100390005E54491C0028F7D120780023000704D5BB
:1003A000702D02D009B1022311322046BDE8704001
:1003B00000F0C9B9B6F000002DE9F05F89460446A7
:1003C0004FF0000ADFF824B1FB44C0F820A020461B
:1003D000E168884700287DD0252806D0D4E901218E
:1003E0009047206A401C2062F1E700255F462046C6
:1003F000E16888472028064607DB312E05D2B81968
:1004000010F8200C08B10543F1E7A80701D525F045
:100410000405C4F81CA00027C4F818A02A2E09D08F
:1004200030460EF05FFF38B304EB8708303EC8F863
:10043000186019E059F8041B204604EB870291610B
:10044000E1688847012F064618D1E069002820DAC4
:1004500025F020051DE0D8F8180000EB800006EB21
:1004600040003038C8F818002046E1688847064642
:100470000EF038FF0028EED1012F0AD02E2E08D121
:100480002046E16888477F1C0646022F45F020057C
:10049000C4DBA069002803DA404245F00105A061F1
:1004A000E80701D025F01005A6B1A6F141001928F2
:1004B00002D8203645F400654A463146204625607C
:1004C0004D46FFF76FFE60B1012807D0ED1D25F006
:1004D000070000E007E000F1080978E705F10409EA
:1004E00075E730467AE7206ABDE8F09F8CF000009F
:1004F00030B505460B462A4613F8014B12F8010B9E
:1005000008B1A042F8D01CB1002802D06D1CF1E760
:10051000284630BD40EA010310B59B070FD1042ADD
:100520000DD310C808C9121F9C42F8D020BA19BABE
:10053000884201D9012010BD4FF0FF3010BD1AB123
:10054000D30703D0521C07E0002010BD10F8013B78
:1005500011F8014B1B1B07D110F8013B11F8014B9F
:100560001B1B01D1921EF1D1184610BD40EA0103B8
:10057000024630B59B0710D14FF0013400E008C2AD
:1005800008C91D1B9D4315EAC41FF8D013F0FF01D5
:1005900002F8011B0DD01B0AF8E711F8013B002BF4
:1005A00002F8013B05D011F8013B002B02F8013B9A
:1005B000F3D130BD10B5431C02E010F8011B71B13E
:1005C0008107FAD14FF0013202C88C1A8C4314EA29
:1005D000C211F9D0C01A0A0603D0C01E10BDC01A3D
:1005E00010BD0A0401D0801E10BD0902FCD0401EBF
:1005F00010BD032A40F2308010F0030C00F015808B
:1006000011F8013BBCF1020F624498BF11F801CB15
:1006100000F8013B38BF11F8013BA2F1040298BF7A
:1006200000F801CB38BF00F8013B11F0030300F0E4
:100630001681083AC0F0088051F8043B083A51F896
:1006400004CBA0E80810F5E7121D5CBF51F8043B8D
:1006500040F8043BAFF30080D20724BF11F8013B00
:1006600011F801CB48BF11F8012B24BF00F8013B62
:1006700000F801CB48BF00F8012B70474FF0000293
:100680000429C0F0128010F0030C00F01C81CCF1A2
:10069000040CBCF1020F18BF00F8012BA8BF20F812
:1006A000022BA1EB0C0100F00EB95FEAC17C24BF64
:1006B00000F8012B00F8012B48BF00F8012B704710
:1006C0004FF0013C50F8042B51F8043B9A4221D1E1
:1006D000A2EB0C03934313EACC1317D150F8042B6D
:1006E00051F8043B9A4215D1A2EB0C03934313EA51
:1006F000CC130BD150F8042B51F8043B9A4209D18A
:10070000A2EB0C03934313EACC13DBD04FF00000B1
:10071000704700BFD01A01BAB1FA81F101F0180197
:1007200022FA01F0CB40C1F12001DBB2C0B2C01A05
:100730002CFA01F3D11A914311EAC311E6D17047A3
:100740007047704770472DE9F0470D46994692462D
:10075000044600F124080168880604D5E06921F008
:100760001001216000E00120A84201DD471B00E0EC
:100770000027A1697A1902EB0900081AA061207804
:10078000C00602D42046FFF75FFD002608E0D4E94A
:1007900001211AF806009047206A401C761C20624E
:1007A0004E45F4DB2078C0060AD52046FFF74CFD05
:1007B00006E0D4E9012130209047206A401C2062E5
:1007C000381EA7F10107F4DC07E0D4E9012118F88D
:1007D00005009047206A401C2062281EA5F10105F3
:1007E000F3DC2046FFF746FD2078000602D5022004
:1007F000BDE8F0870120FBE701694A1C0261087827
:10080000704700B58FB0CDE9013100210591054950
:100810007944CDE9031011466846FFF7CDFD0FB0CE
:1008200000BD0000E5FFFFFF0A6802F8010B0A6047
:10083000704710B5436913B1AFF3008001E0FFF7D3
:100840002AFD012010BD127800F124010A70002257
:100850004A700122EDE711684FF0FF32E9E710B569
:10086000203AC0F00B80B1E81850203AA0E81850A8
:10087000B1E81850A0E81850BFF4F5AF5FEA027C69
:1008800024BFB1E81850A0E8185044BF18C918C0D8
:10089000BDE810405FEA827C24BF51F8043B40F879
:1008A000043B08BF7047D20728BF31F8023B48BF5E
:1008B00011F8012B28BF20F8023B48BF00F8012B9C
:1008C00070474FF0000200B5134694469646203913
:1008D00022BFA0E80C50A0E80C50B1F12001BFF4F9
:1008E000F7AF090728BFA0E80C5048BF0CC05DF85F
:1008F00004EB890028BF40F8042B08BF704748BFAD
:1009000020F8022B11F0804F18BF00F8012B704720
:10091000754600F029F8AE4605006946534620F0BA
:100920000700854618B020B5FFF768FCBDE82040F9
:100930004FF000064FF000074FF000084FF0000B9B
:1009400021F00701AC46ACE8C009ACE8C009ACE84E
:10095000C009ACE8C0098D4670470446AFF300807B
:100960002046FFF737FC000000487047CC6C0020A1
:1009700001491820ABBEFEE726000200704770B5A3
:10098000044620688168C943C9071BD1816821F0EA
:100990000101816003F0A2FB05460EE003F09EFB1F
:1009A000401B022809D9A06A40F01000A062E06A4A
:1009B00040F00100E062012070BD20688068C04303
:1009C000C007EBD0002070BD10B50146486A826AAE
:1009D00012F0500F05D0006A026BBDE810400846C7
:1009E0001047816A41F40071816201688968C1F32E
:1009F000424107290CD1C16851B9816A21F4807143
:100A00008162816AC90403D4816A41F00101816273
:100A100002F014FD10BD10B5406A816A41F040013A
:100A20008162C16A41F00401C16202F009FD10BD9A
:100A300010B5406A02F003FD10BD0000F8B5044691
:100A40000026009620688168C943C9072AD08168BA
:100A500041F001018160144814490068B0FBF1F0D5
:100A6000009002E00098401E009000980028F9D104
:100A700003F034FB054610E003F030FB401B022876
:100A80000BD9A06A40F01000A062E06A40F00100BB
:100A9000E06284F824600120F8BD20688068C043CB
:100AA000C007E9D10020F8BD0C00002040420F0033
:100AB0002DE9F047564C574E574FA188E3884FF425
:100AC000967251EA03004FF480694FF4805A4FF058
:100AD00001084FF0000503D0204680780BB323E0D7
:100AE00040F6B830A080E280706840F2DC51884265
:100AF00002D24FF4C860706001224946384603F0C4
:100B0000E6FA46490A22A1F1680002F079FD84F86C
:100B10000280E178404600295FD1E0700022514612
:100B200058E009B1012802D002284CD055E03B48DA
:100B3000A2800221A170026840F6FF7C93B203EB11
:100B40001243426803EB124392B213448268C068B6
:100B500003EB124392B21A4402EB104280B21044EB
:100B6000C2084FF44D604243B2FBFCF32848B3F592
:100B70007A7FC0780FD9B2FBFCF27260657084F89E
:100B80000080012829D1E17001225146384603F046
:100B90009EFAA56021E0012808D1E5704FF4FA70B3
:100BA000A08001225146384603F091FA60780A2865
:100BB00001D2401C6070C0B2032800D925704FF4E8
:100BC0009660706009E01548A570683802F0A8FDCD
:100BD00000224946384603F07AFA11480078012885
:100BE00013D1A08808B1401EA080E08808B1401E43
:100BF000E080E078002808D0A06844F62061401C1E
:100C0000A060884201D9A560E570BDE8F0870000CA
:100C100084000020B435002000140140AC390020CD
:100C20001600002010B51048006980470E481430A7
:100C3000006980470C482830006980470A483C30EA
:100C40000069804708485030006980470648643092
:100C500000698047044878300069804702488C303A
:100C60000069BDE8104000472002002010B5104880
:100C7000C06880470E481430C06880470C48283050
:100C8000C06880470A483C30C068804708485030F8
:100C9000C068804706486430C068804704487830A0
:100CA000C068804702488C30C068BDE810400047EB
:100CB00020020020FEE7A0F13001092900D8C8B2C7
:100CC000A0F14101052901D80A31C8B2A0F16101A2
:100CD000052901D80A31C8B27047000010B505F0E7
:100CE0001FFEFC48007801284DD1042432E004EBBB
:100CF000C400F94901EB4000C07A062828DB04EB68
:100D0000C40001EB400080894EF6602188420CDA75
:100D100004EBC400F04901EB40008089401C04EB67
:100D2000C401ED4A02EB4101888104EBC400EA49A9
:100D300011F8100061280BD1002004EBC401E64A31
:100D400002EB4101C87204EBC40102EB410188814E
:100D5000601CC4B2542CCADBE048007800EBC00031
:100D6000DD4901EB40008089FA280CDDDC48DB49D5
:100D70000978405C38B90120D949D84A127888549A
:100D800008200EF0DBF9D548007800EBC000D2490E
:100D900001EB40008078012841F02F830020CF49EB
:100DA000097801EBC101CC4A02EB41018870CD48C2
:100DB000CA490978405C012811D1C8480078401C14
:100DC000C6490870C8480078042101EB8000C34977
:100DD0000978884202DC0420C049087010BDBF4871
:100DE000007800EBC000BC4901EB4000C07800284F
:100DF00041F0D481BD49B94A12788854BC48B749FA
:100E00000978405C142809DAB948B4490978405C8B
:100E1000401CC1B2B648B14A12788154AF4800783C
:100E200000EBC000AC4911F8100000287ED1AB489F
:100E3000007800EBC00001EB4000807A00F0100069
:100E4000102819D1A548007800EBC00001EB400044
:100E5000C07AC82824DAA148007800EBC00001EB72
:100E60004000C07A401C9D49097801EBC1019A4AB3
:100E700002EB4101C87213E000209849097801EBA8
:100E8000C101954A02EB410188819449097801EB3F
:100E9000C10102EB4101C8729149904A127888540D
:100EA0008E4A127802EBC2028B4B03EB4202511DB9
:100EB0008A4A127802EBC2028E4B03EB4202501DAB
:100EC0000522FFF727FB88B38448007800EBC000B9
:100ED000884901EB40008149097801EBC1017E4A54
:100EE00002EB410151F8052F40F8052F89888180D8
:100EF0007A4A127802EBC202774B03EB4202511D91
:100F0000764A127802EB02127B4B1A44501C0522DF
:100F1000FFF700FB50B17148007800EBC0006E494C
:100F200001EB4000008A0F280ADD00E008E00F20F6
:100F30006A49097801EBC101674A02EB4101088265
:100F40006648007800EBC000634901EB400000797F
:100F500000F0800000287CD06048007800EBC000E2
:100F600011F81000002801F0248261485B490978DB
:100F7000405C012841F31D825848007800EBC00016
:100F8000554901EB4000007900F07F0020287CD11A
:100F90005248007800EBC00011F81000202875D1ED
:100FA0004E48007800EBC00001EB400040794B490F
:100FB000097801EBC101484A02EB410189790843F4
:100FC0004649097801EBC10102EB4101C9790843A7
:100FD0004249097801EBC10102EB4101097A08435A
:100FE0003E49097801EBC10102EB4101497A08430E
:100FF00000286ED041483949097830F81100401C6A
:101000003E49364A127821F81200344A127802EB2F
:10101000C202314B03EB4202511D304A127802EBFF
:101020000212354B1A44501C0522FFF773FA70B3B5
:101030002A48007800EBC000274901EB4000008AF5
:101040000A280ADD0A202549097801EBC101224A54
:1010500000E0FDE302EB410108822048007800EB4C
:10106000C000244901EB4000C07AC82813DA1B48AD
:10107000007800EBC00001EB4000C07A401C17492B
:10108000097801EBC1011B4A02E0F0E0DBE037E048
:1010900002EB4101C8721148007800EBC00015490D
:1010A00001EB4000C07A012812DD0C48007800EB0B
:1010B0000010114908440949097801EBC101064AA9
:1010C00002EB410151F8052F40F8012F89888180FA
:1010D0009FE01FE0160000208A170020BC000020BF
:1010E000844B0020E82900202C000020AC4A00207E
:1010F000F04B0020721D002087600020FC2A002099
:101100000020FE49097801EBC101FD4A02EB4101D3
:10111000C8727EE0F948007800EB0010F9490844F5
:101120004078F649097801EB0111F64A11448978B3
:101130000843F249097801EB01111144C9780843C9
:10114000EE49097801EB0111114409790843EB4993
:10115000097801EB01111144497909B1012100E03D
:1011600000210843F0B3E548007800EBC000E649F1
:1011700001EB4000008A0A2808DD0A20DF490978CF
:1011800001EBC101E04A02EB41010882DB48007833
:1011900000EBC000DA4901EB4000C07AC8280FDA42
:1011A000D648007800EBC00001EB4000C07A401C3C
:1011B000D249097801EBC101D14A02EB4101C87261
:1011C000CE48007800EBC000CD4901EB4000C07A6A
:1011D00001281EDDC948007800EB0010C949084409
:1011E000C64900E00CE0097801EBC101C44A02EBFA
:1011F000410151F8052F40F8012F8988818008E0CE
:101200000020BE49097801EBC101BD4A02EB410152
:10121000C872BA48007800EBC000BB4901EB40003F
:10122000807B00280ED00020B449097801EBC10171
:10123000B54A02F81100B149097801EBC10102EB8E
:101240004101887305E3AD48007800EBC000AE496A
:1012500001EB4000807B0228F4D10020A7490978E7
:1012600001EBC101A84A02EB41018873EAE7A348F8
:10127000007800EBC000A44901EB4000007900F0C9
:101280007F0030287ED19D48007800EBC00011F827
:101290001000302877D19948007800EBC00001EBAE
:1012A0004000807B40B100209449097801EBC101E6
:1012B000954A02EB4101887300209049097801EBBF
:1012C000C101914A02F8110000240BE000218B4873
:1012D000007800EBC0008A4A02EB4000401D015537
:1012E000601CC4B2052CF1DB00218448007800EBBF
:1012F000001286481044C1728048007800EB00114B
:10130000824808447D49097801EBC1017C4A02EB1F
:101310004101D1F80520C0F80120497A4171774890
:10132000007800EBC000764901EB40007349097872
:1013300001EBC101744A02EB4101D1F80520C0F86C
:101340000520497A41726D48007800EB00106D4924
:1013500008446A49097801EBC1016B4A02EB41017B
:10136000D1F80520C0F80120497A4171634800781E
:1013700000EBC000664901EB40006049097801EBD1
:10138000C10101E01EE009E05F4A02EB4101D1F832
:101390000520C0F80520497A417253E75748007884
:1013A00000EBC000584901EB4000807B0228F4D1DB
:1013B00000205249097801EBC101534A02EB410177
:1013C00088733FE74D48007800EBC0004E4901EBC1
:1013D0004000007900F07F00402844D109204D49A9
:1013E00008704648007800EBC000474911F810002B
:1013F000402824D148484149097830F81100401C60
:1014000045493E4A127821F812003C48007800EB2A
:10141000C0003D4901EB4000807B0028BDD000208A
:101420003649097801EBC101374A02F81100334906
:10143000097801EBC10102EB4101887302E72F48F3
:10144000007800EBC000304901EB4000807B0228AF
:10145000A3D100202949097801EBC1012A4A02EBF6
:1014600041018873EEE62548007800EBC00026496C
:1014700001EB4000007900F07F0060287ED11F481A
:10148000007800EBC00011F81000602885D1002022
:10149000224908701948007800EBC000184901EB98
:1014A000400040791549097801EBC101144A02EB6B
:1014B0004101897908431149097801EBC10102EB27
:1014C0004101C97908430D49097801EBC10102EBDB
:1014D0004101097A08430949097801EBC10102EB8E
:1014E0004101497A084300287ED0602103480078F2
:1014F00000EB001205488154002111E0BC000020DF
:10150000721D0020876000208A1700201B660020C3
:101510005A2300203F0000204C2C0020A200002075
:10152000FE48007800EB0012FD481044C172FD48EF
:101530008169FA48007800EB0012F9481044C0F8BD
:101540000710F8488069F549097801EB0111F64A5E
:101550001144C1F80700F148007800EB0011F04891
:101560000844EE49097801EBC101F04A02EB410160
:1015700051F8052F40F8012F898800E047E181806C
:10158000E648007800EBC000E84901EB4000E34981
:10159000097801EBC101E64A02EB410151F8052F40
:1015A00040F8052F89888180DC48007800EB001026
:1015B000DD490844D949097801EBC101DC4A02EB55
:1015C000410151F8052F40F8012F89888180D348C7
:1015D000007800EBC000D74901EB4000CF49097803
:1015E00001EBC101D24A00E027E002EB410151F8D2
:1015F000052F40F8052F89888180C848007800EBC6
:10160000C000CB4901EB4000807B002814D00020B3
:10161000C249097801EBC101C54A02F81100BF496E
:10162000097801EBC10102EB41018873C2480078DF
:1016300040F00200C04908708CE06021B748007893
:1016400000EB0012B64881540021B448007800EB4A
:101650000012B3481044C172B2488169AF480078A3
:1016600000EB0012AE481044C0F80710AD48806986
:10167000AA49097801EB0111AB4A1144C1F80700EE
:10168000A648007800EB0011A5480844A349097852
:1016900001EB0111114451F8012F40F8012F898805
:1016A00081809E48007800EBC000A04901EB40001B
:1016B0009A49097801EBC1019D4A02EB410151F8B9
:1016C000052F40F8052F898881809448007800EB29
:1016D0000010954908449149097801EBC101944AE9
:1016E00002EB410151F8052F40F8012F89888180D4
:1016F0008A48007800EBC0008E4901EB4000874922
:10170000097801EBC1018A4A02EB410151F8052F2A
:1017100040F8052F898881808048007800EBC00060
:10172000834901EB4000807BA0B100207B49097810
:1017300001EBC1017E4A02F811007849097801EBFA
:10174000C10102EB410188737B48007840F0020040
:1017500079490870794890F88A107530405C012802
:1017600077D16E48007800EB00116D48084440784E
:101770006A49097801EB01126949114489780843E3
:101780006649097801EB011265491144C97808439B
:101790006249097801EB0112614911440979084352
:1017A0005E49097801EB01125D491144497908430A
:1017B00048B90521614890F88A207530815400208D
:1017C0005F49088008E004200DF0B8FC02215B4866
:1017D00090F88A2075308154584890F88A0000EBC0
:1017E000800156487B3001444C48007800EB0012E1
:1017F0004B481044D0F801200A60407908714748EE
:1018000001784E4890F88A208E3081541AE543487A
:10181000007800EBC000464901EB4000007900F081
:101820007F00612878D13D48007800EBC00011F8B6
:1018300010006128EAD13948007800EBC00001EBC4
:10184000400040793549097801EBC101384A01E08F
:10185000C8E13BE102EB4101897908432F4909784E
:1018600001EBC10102EB4101C97908432B49097819
:1018700001EBC10102EB4101097A084327490978CC
:1018800001EBC10102EB4101497A084300287DD0F8
:1018900001200DF053FC61212048007800EB00127C
:1018A0001F48815400211D48007800EB00121C489D
:1018B0001044C17201201949097801EB01111A4A3B
:1018C0001144C872174881691448007800EB00126F
:1018D00013481044C0F80710124880690F4909786E
:1018E00001EB0111104A1144C1F807000B480078C0
:1018F00000EB00110A4808440849097801EBC101CE
:101900000B4A02EB410151F8052F40F8012F89885D
:1019100081800248007815E054E10000BC000020FE
:101920001B660020B435002087600020721D002057
:101930008A1700205A230020C5000020004A0020FA
:10194000A400002000EBC000FE4901EB4000FE496E
:10195000097801EBC101FD4A02EB410151F8052F65
:1019600040F8052F89888180F748007800EB001047
:10197000F7490844F449097801EBC101F34A02EB45
:10198000410151F8052F40F8012F00E035E089882A
:101990008180ED48007800EBC000EE4901EB40008B
:1019A000E949097801EBC101E84A02EB410151F82C
:1019B000052F40F8052F89888180E348007800EBE7
:1019C000C000E24901EB4000807B00287ED000206F
:1019D000DD49097801EBC101DC4A02F81100DA495E
:1019E000097801EBC10102EB41018873DA48007804
:1019F00040F00200D849087024E4D348007800EB96
:101A0000C000D04901EB40004079CF49097801EB93
:101A1000C101CC4A02EB410189790843CA490978DE
:101A200001EBC10102EB4101C9790843C6490978BC
:101A300001EBC10102EB4101097A0843C24909786F
:101A400001EBC10102EB4101497A084300287DD036
:101A500001200DF073FB6121BB48007800EB001200
:101A6000BE4881540021B848007800EB0012BB4802
:101A70001044C1720120B449097801EB0111B44A44
:101A80001144C872B6488169AF48007800EB001273
:101A9000B2481044C0F80710B1488069AA490978D3
:101AA00001EB0111AA4A1144C1F80700A6480078C9
:101AB00000EB0011A9480844A349097801EBC101D2
:101AC000A04A02EB410151F8052F00E05FE040F829
:101AD000012F898881809C48007800EBC0009949DB
:101AE00001EB40009849097801EBC101974A02EBEC
:101AF000410151F8052F40F8052F898881809248CF
:101B0000007800EB0010924908448F49097801EBF6
:101B1000C1018E4A02EB410151F8052F40F8012F17
:101B2000898881808848007800EBC000894901EBF2
:101B300040008549097801EBC101844A02EB41016B
:101B400051F8052F40F8052F898800E020E08180BA
:101B50007D48007800EBC0007C4901EB4000807BB1
:101B6000002814D000207849097801EBC101774A98
:101B700002F811007449097801EBC10102EB41013F
:101B800088737548007840F0020073490870E9E2F4
:101B90006D48007800EBC0006C4901EB4000807B91
:101BA0000028F4D000206849097801EBC101674A98
:101BB00002F811006449097801EBC10102EB41010F
:101BC0008873F6E300206049097801EBC1015F4AA0
:101BD00002F811005C49097801EBC10102EB4101F7
:101BE0008873E6E35848007800EBC000574901EBE2
:101BF0004000007960287DD15348007800EBC00098
:101C000001EB4000807A00F00800E0B34E48007815
:101C100000EBC00011F81000002851D051484A498B
:101C20000978405C02284BDD00204F490870464887
:101C3000007800EB001149480844C07A00F0070022
:101C400003280FDA4048007800EB001143480844AD
:101C5000C07A401CC1B23C48007800EB00123F48FB
:101C60001044C17200203849097801EBC101374A9C
:101C700002F811003449097801EBC10102EB41017E
:101C800088733A4800E01CE090F88A107530405C98
:101C9000012815D1354890F88B002B4909788842E6
:101CA000F7D1324890F88C00304981F88B00002041
:101CB00081F88C0000212D4890F88A2075308154DD
:101CC00041E22148007800EBC000204901EB4000D0
:101CD000807A00F002000028F2D01B48007800EB68
:101CE000C00011F810000028EAD01E4816490978F3
:101CF000405C00E0B6E10228E2DD00201A490870ED
:101D0000114A127802EBC202104B03EB4202511D42
:101D10000D4A127802EBC2020A4B03EB4202501D3D
:101D20000522FEF7F7FB00287DD00748007800EB7E
:101D3000C000044901EB400040790349097801EBF8
:101D4000C10115E0721D0020BC0000208A17002090
:101D5000876000205A230020C50000201B66002059
:101D6000B4350020F04B0020A2000020004A0020E3
:101D7000FD4A02EB410189790843FC49097801EBEE
:101D8000C10102EB4101C9790843F849097801EB27
:101D9000C10102EB4101097A0843F449097801EBDA
:101DA000C10102EB4101497A084300287DD060213E
:101DB000EE48007800EB0012ED4881540021EB481A
:101DC000007800EB0012EA481044C172E9488169CA
:101DD000E648007800EB0012E5481044C0F8071010
:101DE000E4488069E149097801EB0111E24A1144B4
:101DF000C1F80700DD48007800EB0011DC4808441A
:101E0000DA49097801EBC101D74A02EB410151F8E7
:101E1000052F40F8012F89888180D448007800EB95
:101E2000C000D14900E098E001EB4000CF490978BB
:101E300001EBC101D14A02EB410151F8052F40F8F5
:101E4000052F89888180C948007800EB0010CA49B5
:101E50000844C649097801EBC101C84A02EB4101B7
:101E600051F8052F40F8012F89888180BF480078FC
:101E700000EBC000C24901EB40000021C0F8051092
:101E80004172BA48007800EBC000BC4901EB400049
:101E9000807BB0B10020B549097801EBC101B74A98
:101EA00002F81100B149097800E035E001EBC10109
:101EB00002EB41018873B348007840F00200B14959
:101EC0000870B14890F88A107530405C012822D122
:101ED00004200DF033F90221AB4890F88A207530C8
:101EE0008154753890F88A0000EB8001A6487B3059
:101EF00001449E48007800EB00129D481044D0F841
:101F000001200A6040790871984801789E4890F84D
:101F10008A208E30815416E19B4890F88A107530E3
:101F2000405C0128F7D19148007800EBC0008E4951
:101F300001EB40009549D0F805200A60407A08710D
:101F40000521914890F88A207530815400209049ED
:101F5000088003200DF0F2F8F5E08B4890F88A1025
:101F60007530405C0128D6D160218048007800EBB4
:101F700000127F48815400217C48007800EB001259
:101F80007B481044C1727B4881697848007800EB37
:101F9000001277481044C0F80710764880697349EA
:101FA000097801EB0111744A1144C1F807006F4828
:101FB000007800EB00116E4808446C49097801EB89
:101FC000C101694A02EB410151F8052F40F8012F88
:101FD000898881806548007800EBC000624901EB88
:101FE00040006249097801EBC101644A02EB4101FA
:101FF00051F8052F40F8052F898881805B480078CB
:1020000000EB00105C4908445849097801EBC10114
:102010005A4A02EB410151F8052F40F8012F8988F7
:1020200081805248007800EBC0004F4901EB40002E
:102030005649D0F805200A60407A087104215248B8
:1020400090F88A2075308154484801784E4890F8BD
:102050008A208E30815400204D49088003200DF0E5
:102060006DF870E04148007800EBC000434901EB97
:102070004000007961284CD13C48007800EBC0005A
:1020800011F81000F0B3434838490978405C022841
:1020900059DD3648007800EBC000384901EB4000BC
:1020A00040793249097801EBC101344A02EB410120
:1020B000897908432D49097801EBC10102EB4101FF
:1020C000C97908432949097801EBC10102EB4101B3
:1020D000097A08432549097801EBC10102EB410166
:1020E000497A084310B902200DF028F81F480078FB
:1020F00000EB00111E480844C07A40F008011B485C
:10210000007800E01FE000EB001219481044C17293
:1021100019E01648007800EBC000184901EB4000B8
:10212000007940280FD11148007800EBC00011F869
:10213000100040B117480D490978405C022802DDC3
:1021400009201549087000200849097801EBC101F0
:102150000A4A02F811000549097801EBC10102EBB6
:102160004101887325E10000721D0020BC000020A1
:102170001B660020B4350020876000208A170020ED
:102180005A230020C5000020004A0020A60000209D
:10219000A4000020F04B00203F000020AF48B049D1
:1021A0000978405C142809DAAC48AD490978405CEC
:1021B000401CC1B2A948AA4A12788154A8480078A4
:1021C00000EBC000A74911F81000602871D1A448A5
:1021D000007800EBC00001EB4000C078602868D1B7
:1021E0009F48007800EBC00001EB400040799C491B
:1021F000097801EBC1019B4A02EB4101897908434F
:102200009749097801EBC10102EB4101C979084303
:102210009349097801EBC10102EB4101097A0843B6
:102220008F49097801EBC10102EB4101497A08436A
:10223000F0B38B48007800EBC000114601EB400082
:10224000807A00F02000202808D18748007828B93B
:1022500000200CF073FF01208349087083488049F7
:102260000978405C322809DA80487D490978405C69
:10227000401CC1B27D487A4A12788154784A12785B
:1022800002EBC202774B03EB4202511D744A1278F3
:1022900002EBC202764B03EB4202501D0522FEF711
:1022A00039F950B371486E490978405C032801E060
:1022B00022E030E07DDA6A48007800EBC0006C492B
:1022C00001EB40006649097801EBC101654A02EB68
:1022D000410151F8052F40F8052F89888180604819
:1022E000007800EBC000624901EB40006149D0F882
:1022F00005200A60407A08715BE05948007800EBDD
:10230000C0005B4901EB40005A49D0F805200A6043
:10231000407A08714DE05248007800EBC000514906
:1023200011F81000612844D14D48007800EBC0003E
:1023300001EB4000C07861283BD14948007800EBB0
:10234000C00001EB400040794549097801EBC1012B
:10235000444A02EB4101897908434149097801EB7C
:10236000C10102EB4101C97908433D49097801EBFC
:10237000C10102EB4101097A08433949097801EBAF
:10238000C10102EB4101497A084390B13448007819
:1023900000EBC000364901EB40003149097801EB00
:1023A000C10102EB410151F8052F40F8052F898842
:1023B00081802B48007800EBC0002A4901EB4000E7
:1023C000807A00F00400C0B12B4890F88B0000EB3D
:1023D000C00011F8100080B92148007800EBC0005F
:1023E000234911F81000602807D061201C490978A2
:1023F00001EBC1011E4A02F811001948007800EBF8
:10240000C000184911F8100070B11C48144909782F
:10241000405C3C280DDD00201149097801EBC10129
:10242000104A02F8110004E0002014490C4A127806
:1024300088540B480078401C0949087010480078FF
:10244000042101EB800006490978884202DC04205F
:102450000349087000BFFEF7C1BC0000F04B00202C
:10246000BC0000208A170020A2000020AC4A0020F7
:10247000721D0020A6000020004A0020184B0020FA
:102480002C000020F0B52048007801283AD11F4BDD
:102490000020187058701F491D4D0C7824E0011D54
:1024A0000A4601EB01112944CE780F793E434F795A
:1024B0003E4314D0184E02EBC20206EB42025278A1
:1024C000012A0CD191F8A0254AB991F89F1501F085
:1024D0000701022903D21978491C197002E05978C2
:1024E000491C5970401CC0B2B0EB840FD7D3997807
:1024F0001878814206D009490A7A002A02D19870D8
:1025000068200872F0BD00001A000020E8000020DA
:10251000876000202C0000208A170020645F0020C4
:1025200003484078002801D0002070470120704700
:10253000DE110020F548007A642800DA7047F4487C
:1025400090F88D00042831DAF14890F88B00F049BA
:1025500081F88D00084690F88D00042804DB0846B9
:1025600090F88D00542803DD0420E94981F88D009E
:10257000E74890F88C0058B1E54890F88C00FF28A7
:1025800006D0E34890F88C00401CE24908700DE04A
:10259000DF4890F88D00042802D1DE49087005E07C
:1025A000DB4890F88D00401CDA490870D84890F854
:1025B0008B0000287ED0D64890F88C00002879D077
:1025C000D34890F88B00FF287DD0D14890F88C003C
:1025D000FF2878D0CE4890F88C0000EBC000CE49A0
:1025E00011F8100040B1CA4890F88C0000EBC00010
:1025F00011F81000202862D1C54890F88C0000EB3B
:10260000C000C64911F8100040B1C14890F88C00D4
:1026100000EBC00011F81000202850D1BC4890F801
:102620008C0000EBC000BC4901EB40004079B84988
:1026300091F88C1001EBC101B74A02EB4101897995
:102640000843B34991F88C1001EBC10102EB410141
:10265000C9790843AE4991F88C1001EBC10102EB36
:102660004101097A0843AA4991F88C1001EBC10194
:1026700002EB4101497A084308B3A54890F88C0061
:1026800000EBC000114601EB40004078012816D154
:102690009F4890F88C0000EB0011A1480844C07AD4
:1026A00000F0070002280ADA994890F88C0000EB45
:1026B000001100E007E09A48405C00B93EE70020C6
:1026C000934981F88C0093480078042808DB9548EA
:1026D0000078042101EB80008E490978884202DAF3
:1026E00004208C4908708B48007800EBC0008A49B0
:1026F00011F8100038B18748007800EBC00011F8DD
:10270000100020287DD18348007800EBC000834969
:1027100011F8100038B17F48007800EBC00011F8C4
:1027200010002028EED17B48007800EBC0007A49E9
:1027300001EB400040797749097801EBC101764A05
:1027400002EB4101897908437249097801EBC10123
:1027500002EB4101C97908436E49097801EBC101D7
:1027600002EB4101097A08436A49097801EBC1018A
:1027700002EB4101497A0843002842D065480078BD
:1027800000EBC000114601EB4000407801287ED1EB
:102790006048007800EB00116148405C002876D169
:1027A0005C48007800EB00115D480844C07A00F0F6
:1027B000070002286BDA5748007800EB00115848F0
:1027C0000844007BE8B9524890F88B0018B950488B
:1027D00090F88C0048B14E4890F88B00FF281AD131
:1027E0004B4890F88C00FF2815D14A48007848499A
:1027F00081F88B00084690F88B00FF2847D00846E8
:1028000000E032E090F88B0078B3084690F88B0037
:1028100081F88D003BE03E4890F88B0020B13C48A9
:1028200090F88B00FF2821D1394890F88C00E8B14E
:10283000374890F88C00FF2818D0354890F88C0065
:10284000334981F88B003348007881F88C000846C2
:1028500090F88B00FF281AD0084690F88B0020B122
:10286000084690F88B0081F88D0010E0284890F819
:102870008D0028490978884204D1FF20244981F835
:102880008C0004E023480078214981F88C0021481D
:102890000078401C1F49087022480078042101EB91
:1028A00080001C490978884202DC0420194908701C
:1028B000174890F88D0017490978884223D11448A9
:1028C00090F88B00B0B9124890F88C0070B11048A5
:1028D00090F88C00FF2809D00D4890F88C000C4926
:1028E00081F88B00002081F88C0003E0FF2008496C
:1028F00081F88B00064890F88C0018B9FF20044935
:1029000081F88C001AE600BF18E60000E02D0020D8
:10291000004A0020BD0000208A170020721D002000
:102920001B6600202C00002030B50346002010E07C
:102930001C78802205064FEA40604FEA106001D5FE
:1029400080F03100144201D080F031005208F1D102
:102950005B1C491EC9B2EBD230BD0000014800F03B
:102960002FBF00007439002010B50468636043680D
:10297000102B04D0036899600068C26010BD036822
:102980009A600068C16010BDFEE7000010B540F617
:10299000EC7421460848FDF771FE4FF48031224661
:1029A000054809F0DCFB4FF4A0212246024809F05B
:1029B000D6FB012010BD00005C4C002070B5044621
:1029C00000252078002809D001280DD0022813D036
:1029D000032802D120698047257070BDE5802581DC
:1029E0002069BDE870400047022020706420E0802C
:1029F000E068BDE870400047E0880028EDD120691C
:102A000080470320207070BDFEB5684600F064FA70
:102A10000024384E012804D0B6F88E00002864D077
:102A200065E08C3640F6B8307080324D3088C03565
:102A30009DF80020425536F88C1901202E4B3E2A75
:102A400002D109B91F7917B1202A02D006E0187106
:102A500005E0012902D11F79012F05D01C710A2A36
:102A600007D00D2A05D008E01C71A6F88C40002084
:102A7000FEBD9F780FB9DF7827B10A2A04D00D2A4E
:102A800002D006E0987006E09878012801D1D87845
:102A900078B19C70DC70491C88B2A6F88C00B0F547
:102AA0001B7F24D340F26B20A6F88C009C70012081
:102AB000FEBD9C700A2914D90939029102A901A806
:102AC00000F0AAF8B6F88C10284609390CF012FC70
:102AD0000199884201D10120FEBDA6F88C4000205A
:102AE000FEBDA6F88C400020FEBDA6F88C4000205C
:102AF000FEBD0000B435002048000020F0B5284E8F
:102B0000B6F88C7000240D88002344E0324492F81B
:102B1000C0203B2A10D00A2A14D00D2A12D02E2A07
:102B200016D0A2F1300CBCF1090F17D86FF02F0CA2
:102B30000CEB0313134426E0641C62190A80036043
:102B40000120F0BD641C0360601908800120F0BD05
:102B50000360641C601908800220F0BDA2F1410CE2
:102B6000BCF1050F05D86FF0360C0CEB03131344C2
:102B700009E0A2F1610CBCF1050F04D86FF0560C0E
:102B80000CEB031313442CB10360641C6019088020
:102B90000220F0BD01246219BA42B7D30020F0BD73
:102BA000B4350020F0B51B4EB6F88C7000230D88AC
:102BB000002418E0324492F8C0203B2A18D00A2A98
:102BC0001CD00D2A1AD02E2A1ED0A2F1300CBCF136
:102BD000090F06D804EB84046FF02F0C0CEB4404AF
:102BE00014445B1C9BB25A19BA42E3D30020F0BDD7
:102BF0005B1C5A190A8004600120F0BD5B1C046054
:102C0000581908800120F0BD04605B1C5819088029
:102C10000220F0BDB4350020F0B5254EB6F88C701A
:102C200000240D8800233EE0324492F8C0203B2A65
:102C300010D00A2A14D00D2A12D02E2A16D0A2F1B2
:102C4000300CBCF1090F17D86FF02F0C0CEB0313ED
:102C5000134426E0641C62190A8003600120F0BD61
:102C6000641C0360601908800120F0BD0360641CCF
:102C7000601908800220F0BDA2F1410CBCF1050FE3
:102C800005D86FF0360C0CEB0313134409E0A2F1E6
:102C9000610CBCF1050F04D86FF0560C0CEB03135C
:102CA0001344641CA4B26219BA42BDD30020F0BD23
:102CB000B4350020F0B51D4EB6F88CC000230D8849
:102CC00000272EE0344494F8C0403B2C0DD00A2C51
:102CD00019D00D2C17D0202C01D000F8014B5B1C13
:102CE0009BB293421DD90020F0BD5B1C9BB25C19C6
:102CF0000C80934205D800F8017B5B1C9BB2934289
:102D0000F9D90120F0BD5B1C9BB25C190C80934289
:102D100005D800F8017B5B1C9BB29342F9D90120D6
:102D2000F0BD5C196445CDD30020F0BDB435002062
:102D30002DE9F0410024002500262B4FA7F537721E
:102D4000B2F802C00A784AE0BB5C2C2B1CD02E2BB8
:102D500023D00D2B2AD00A2B28D0222B2FD0202B8A
:102D600034D0A3F13008B8F1090F36D8012465F347
:102D70001F131D460560761CF6B2521CD2B2082EF7
:102D80002DD30420BDE8F081521CD0B20880012C64
:102D900001D00020F6E70120F4E7521CD0B20880F1
:102DA000012C01D00020EDE70120EBE7521CD0B24E
:102DB0000880012C01D00220E4E70320E2E7521C46
:102DC000D2B20A80012C0AD10120DBE7521CD2B218
:102DD0000A80012C03D10120D4E7521CD2B26245F3
:102DE000B2D30620CEE70000BA14002000881149B3
:102DF000114A084490F8DC12B2F8BE3202F5317084
:102E00001954B2F8BE02401C80B2A2F8BE02B2F859
:102E1000C012884202D1401EA2F8BE0202F2BE22B7
:102E200010889188B0FBF1F301FB130010800120A2
:102E300070470000DE110020E02D0020F0B50023D7
:102E400000220F4CA4F537714E8800780D4D13E029
:102E5000215C222900D113B1012B02D00AE0012309
:102E600008E022290AD00A2908D0AF1887F892175B
:102E7000521C92B2401CC0B2B042E9D30120F0BD56
:102E8000BA140020E02D002070B500220024114D5E
:102E9000A5F537735E880B7818E0E95C0D2900D141
:102EA00012B10A2902D003E001220DE0012A02D06A
:102EB000022A02D008E0022206E00D2908D00A29E1
:102EC00006D00155641CA4B25B1CDBB2B342E4D350
:102ED000012070BDBA1400200C4AB2F8C012B2F83A
:102EE000BE32994210D002F53173C95C017002F50F
:102EF00030721088401C80B25188B0FBF1F301FBA6
:102F0000130010800120704700207047E02D002042
:102F1000F0B5124F7E8800220B884FF42F7C12E010
:102F2000855C4DB1644511D83C4494F8DC42AC4218
:102F300006D1521C92B206E0D01808800120F0BDE4
:102F40005B1C9BB20022D418B442E9D3805C08B168
:102F50000020F0BDD01808800120F0BDDE11002057
:102F6000F0B5274EB6F88C7000220B883CE0845CEC
:102F70009CB140F26B2C654539D2A4F1410CBCF1F7
:102F8000190F12D8354495F8C050A54202D020340C
:102F9000A54206D1521C92B226E0D018088001202A
:102FA000F0BD5B1C9BB200221EE0A4F1610CBCF1E1
:102FB000190F0ED8354495F8C050A54202D0203CD8
:102FC000A54202D1521C92B20EE05B1C9BB20022C1
:102FD0000AE0354495F8C050A54202D1521C92B285
:102FE00002E05B1C9BB20022D518BD42BFD3805CBF
:102FF00008B10020F0BDD01808800120F0BD00000D
:10300000B435002010B502F03FFD6E48808918B13C
:103010006D48007800287DD16C480068401C6B49E1
:1030200008606948007801282AD169486949097807
:10303000405C401C6649674A1278885408466549D6
:103040000978405CC92804DD14216148614A12787E
:103050008154022060495F4A1278885400240CE0B1
:1030600002215C48007804EB800000EBC0005B4A62
:1030700002EB40004170601CC4B2042CF0DB31E074
:10308000002423E05348007804EB800000EBC000EC
:10309000524901EB4000407802280AD101214D48F5
:1030A000007804EB800000EBC0004C4A02EB4000CB
:1030B000018201214748007804EB800000EBC0004A
:1030C000464A02EB40004170601CC4B2042CD9DBBC
:1030D000012041493F4A1278885400203C493D4A2A
:1030E000127888543E4800783A49087001203649E1
:1030F00008709620334988813A480078012850D0DA
:103100003748007809F076FA00284AD13049344A25
:10311000127800E053E0885C00EBD0714910A0EB1E
:10312000410149BB30480078012820D12F48007860
:1031300003281CDD00202D49087000212C48007850
:103140000AF0ECF92A480078401C29490870002050
:103150001D4908702648007826490978884220DDF4
:1031600001202349087000201F49087019E01C48FD
:10317000007809F063F914E019480078401C1849F8
:103180000870084600781B490978884202DD012052
:103190001349087050200B49888101200A490870A2
:1031A00010BD0F480078401C0D4908700846007893
:1031B00010490978884202DD01200949087000BFE2
:1031C000EEE70000B435002034000020300000207D
:1031D000602D002046000020F42C00208A170020DB
:1031E00045000020CB0000203D00002040000020D2
:1031F000410000202C0000200022814201D810460E
:10320000704700F580728A4202D24FF48070704796
:10321000081A7047F8B51F4C607A012839D100258B
:103220008DF800508DF80150012204F113011A4865
:1032300001F076FE012608B98DF8006015490122DB
:103240001031154801F095FE08B98DF801609DF820
:103250000000124E012803D19DF8010001280BD077
:103260006078401C6070B5616078032811D9657082
:10327000BDE8F84004F078B9074806F02CFFB169C2
:10328000814203D16078401C6070EDE76570B061E9
:10329000EAE7F8BD10000020FC000020B435002053
:1032A0002DE9F84100230024009490F82420012AFD
:1032B00022D0012280F824204A681F274FF4787614
:1032C000072A1CD20568D5F834C096FAA6F8521E13
:1032D000B8FA88F802FB08F807FA08F72CEA070C96
:1032E00096FAA6F6B6FA86F60F68724397404CEA4D
:1032F000070CC5F834C037E00220BDE8F8810D2A7C
:1033000019D20568D5F830C096FAA6F8D21FB8FAD7
:1033100088F802FB08F807FA08F72CEA070C96FA77
:10332000A6F6B6FA86F60F68724397404CEA070C89
:10333000C5F830C018E00568D5F82CC096FAA6F894
:103340000D3AB8FA88F802FB08F807FA08F72CEAF1
:10335000070C96FAA6F6B6FA86F60F6872439740FF
:103360004CEA070CC5F82CC00A68382607270A2A39
:1033700019D30568D5F80CC096FAA6F80A3AB8FA37
:1033800088F802FB08F807FA08F72CEA070C96FA07
:10339000A6F6B6FA86F68F68724397404CEA070C99
:1033A000C5F80CC017E00568D5F810C096FAA6F865
:1033B000B8FA88F802FB08F807FA08F72CEA070CB5
:1033C00096FAA6F6B6FA86F68F68724397404CEAEC
:1033D000070CC5F810C00A68102A01D0112A23D1A1
:1033E000134D0268AA421AD195682D021CD4956823
:1033F00045F4000595600968102915D10D490E4A5C
:103400000968B1FBF2F101EB81014900009102E092
:103410000099491E009100990029F9D104E0816AC0
:1034200041F020018162012380F82440184664E7BE
:10343000002401400C00002040420F0070477047FC
:10344000704700002DE9F04104460025002C03D010
:10345000A06A002618B108E00120BDE8F081E6620C
:1034600084F82460204600F093F82046FDF787FAA0
:10347000A16A01F01001014305D0A06A40F01000DC
:10348000A0620120E9E7A16A21F4885141F002011C
:10349000A1623C4923688B4206D1E269B2F5402F14
:1034A00003D14FF4002200E0E269022191FAA1F178
:1034B000E768B1FA81F107FA01F10A4361680A434A
:1034C000A1684FF4807C614508D0012906D0002115
:1034D000D4F81480B8F1010F02D00AE06146F7E792
:1034E000C7B1A76A47F02007A762E76A47F001075C
:1034F000E7625F6827F469470F435F6021688B6864
:10350000214F3B4013438B60A168614510D00129D6
:103510000ED016E0A7694FF4604898FAA8F87F1E0D
:10352000B8FA88F807FA08F70F4347F40061E0E7B4
:1035300025694FF4700191FAA1F16D1EB1FA81F184
:103540008D402168CB6A23F470032B43CB62216842
:1035500089680E4B1940914207D1E662A16A21F0B9
:10356000020141F00101A16277E7A06A20F00200A8
:1035700040F01000A062E06A40F00100E06201202B
:103580006BE70000003C0140FDF7E1FFFE0E1FFF6E
:1035900030B505460068154985B0884224D11448E5
:1035A000816941F4007181618069694600F40070AD
:1035B000049001200090032001900E4800F078FC58
:1035C0000E4C0D488021206000206060C4E902019B
:1035D00049002161890061612021C4E9061020466B
:1035E00000F006FC2C62656205B030BD002401408D
:1035F00000100240000C0140080002407439002015
:103600002DE9F047044689469246DFF8008120689C
:103610003F4F08F10406404501D0B84207D1306859
:1036200010F4702F03D001252846BDE8F08794F8E8
:10363000240001280BD0012084F824002046FDF747
:10364000FDF90546002125B184F82410ECE702209D
:10365000EBE7A06A40F60162904340F48070A062FC
:103660002068B84218D1326812F4702F14D0A26AC0
:1036700042F48012A2623068400505D5A06A20F4A9
:10368000005040F48050A062A06AC00412D5E06AE5
:1036900020F00600E0620EE0A26A22F48012A2622C
:1036A00040684005F0D5A06A20F4005040F48050F6
:1036B000A062E9E7E16284F82410216A1548886273
:1036C000216A1548C862216A1448086321686FF0AE
:1036D000020008602068816841F48071816021687F
:1036E00053464C314A46206A00F0ABFB20688168A3
:1036F000C1F34241072904D0816841F480118160FF
:1037000092E7816841F4A00181608DE700240140C7
:1037100000280140C9090108310A0108170A0108F7
:1037200010B5044694F82400012807D0012084F83D
:1037300024002046FDF723F910B10EE0022010BD51
:103740002068816821F480718160206A00F010F89F
:1037500038B1A16A41F04001A162002184F824102F
:1037600010BDA16A21F4885141F00101A162F4E782
:103770002DE9F04104462068016821F00101016053
:1037800000F0ACFC054600264FF47A770EE000F01E
:10379000A5FC401BB84209D92034606940F02000E4
:1037A0006061032060702670BDE8F08120680068C9
:1037B000C007ECD101202034607026700020F3E7B0
:1037C0002DE9F05F0446F94AF84DF84EF74FD11451
:1037D000DFF8D883DFF8D493DFF8D0A320680B029A
:1037E000783D643E503FDFF8C8B34FF4004EA8F177
:1037F0003C08A9F12809AAF1140A904236D9EC4AEA
:10380000083AD2F800C0A84201D108222BE0B04209
:1038100001D1802227E0B84201D10A4623E0404589
:1038200001D172461FE0484501D11A461BE05045C0
:1038300002D14FF4000216E0584501D1082212E0EF
:10384000DB4A1432904201D180220CE0D84A28325F
:10385000904201D10A4606E0D54A3C32904201D15D
:10386000724600E01A460CEA020C3AE0CF4A803A6F
:10387000D2F800C0A84201D1082230E0B04201D104
:1038800080222CE0B84201D10A4628E0404501D10F
:10389000724624E0484501D11A4620E0504502D145
:1038A0004FF400021BE0C14A904201D1020516E02C
:1038B000584501D1082212E0BD4A1432904201D18C
:1038C00080220CE0BA4A2832904201D10A4606E032
:1038D000B74A3C32904201D1724600E01A460CEAE7
:1038E000020CBCF1000F7FD00268D24312077BD4D8
:1038F000026822F008020260AC4A206890422FD988
:10390000A84201D1082127E0B04201D1802123E063
:10391000B84221D0404501D171461DE0484501D152
:10392000194619E0504502D14FF4000114E0584502
:1039300001D1082110E09E4A1432904201D1802129
:103940000AE09B4A2832904206D099493C3188428D
:1039500001D1714600E019469548001F016033E02F
:10396000A84201D108212CE0B04201D1802128E0F9
:10397000B84226D0404501D1714622E0484501D1E8
:1039800019461EE0504502D14FF4000119E0904263
:1039900002D14FF0006114E0584501D1082110E038
:1039A000834A1432904201D180210AE0804A2832B1
:1039B000904206D07E493C31884201D1714600E0F8
:1039C00019467A4880384160606B40F001006063BE
:1039D000042084F82100002084F82000216B09B124
:1039E000204600E000E08847704A206811150B016E
:1039F0004FF4802E904236D96D4A083AD2F800C072
:103A0000A84201D104222BE0B04201D1402227E09C
:103A1000B84201D10A4623E0404501D11A461FE0D1
:103A2000484501D172461BE0504502D14FF4800257
:103A300016E0584501D1042212E05D4A143290424A
:103A400001D140220CE05A4A2832904201D10A4664
:103A500006E0574A3C32904201D11A4600E07246D5
:103A60000CEA020C3AE0514A803AD2F800C0A8426F
:103A700001D1042230E0B04201D140222CE0B84212
:103A800001D10A4628E0404501D11A4624E04845C4
:103A900001D1724620E0504502D14FF480021BE074
:103AA000424A904201D1C20416E0584501D1042295
:103AB00012E03F4A1432904201D140220CE03C4ACD
:103AC0002832904201D10A4606E0394A3C329042FF
:103AD00001D11A4600E072460CEA020CBCF1000F5C
:103AE0007CD00268D243520778D40268920603D48D
:103AF000026822F0040202602C4A206890422FD90A
:103B0000A84201D1042127E0B04201D1402123E0A5
:103B1000B84221D0404501D119461DE0484501D1A8
:103B2000714619E0504502D14FF4800114E0584528
:103B300001D1042110E01E4A1432904201D14021EB
:103B40000AE01B4A2832904206D019493C3188428B
:103B500001D1194600E071461548001F016036E0AA
:103B6000A84201D1042130E0B04201D140212CE033
:103B7000B8422AD0404501D1194626E0484501D136
:103B8000714622E0504502D14FF480011DE0904281
:103B900002D14FF0806118E0584501D1042114E0B2
:103BA000034A1432904206D140210EE080000240C8
:103BB0000804024012E08C4A904206D08A4914312F
:103BC000884201D1194600E07146884841601120C1
:103BD00084F82100E16A09B120468847DFF80CC269
:103BE0004FF4007120680CF1800C0B01604537D94F
:103BF0007D4A303AD2F800E0A84201D102222CE0FE
:103C0000B04201D1202228E0B84201D10A4624E086
:103C1000404501D11A4620E0484502D14FF4003218
:103C20001BE0504502D14FF4001216E0584501D177
:103C3000022212E06C4A143A904201D120220CE098
:103C4000694A904201D10A4607E0674A143290421D
:103C500001D11A4601E04FF400320EEA020E3AE0BA
:103C6000624AD2F800E0A84201D1022231E0B0421B
:103C700001D120222DE0B84201D10A4629E0404579
:103C800001D11A4625E0484502D14FF4003220E028
:103C9000504502D14FF400121BE0604502D14FF0B5
:103CA000007216E0584501D1022212E04E4A143A41
:103CB000904201D120220CE04B4A904201D10A46A9
:103CC00007E0494A1432904201D11A4601E04FF40C
:103CD00000320EEA020EBEF1000F6ED00268D2432F
:103CE00092077ED40268920603D4026822F0020290
:103CF00002602068604530D9A84201D1022128E045
:103D0000B04201D1202124E0B84222D0404501D167
:103D100019461EE0484502D14FF4003119E05045E4
:103D200002D14FF4001114E0584501D1022110E0F6
:103D30002D4A143A904201D120210AE02A4A9042A9
:103D400007D029491431884201D1194601E04FF4C6
:103D5000003125482C38016034E0A84201D102210D
:103D60002EE0B04201D120212AE0B84228D04045BF
:103D700001D1194624E0484502D14FF400311FE03B
:103D8000504502D14FF400111AE0604502D14FF0C6
:103D9000007115E0584501D1022111E0124A143A90
:103DA000904201D120210BE00F4A904208D00E49E9
:103DB0001431884202D1194602E012E04FF400317A
:103DC0000A484160606B6063012084F82100002094
:103DD00084F82000A16A002903D02046BDE8F05FE6
:103DE0000847BDE8F09F0000300402400000024098
:103DF00070B5002804D090F82110002411B103E020
:103E0000012070BD80F82040022180F82110016857
:103E10000A6843F6F0739A43D0E901352B43D0E9A1
:103E2000035635432B4345692B4385692B43C569AD
:103E30002B4313430B604463012180F821100020C1
:103E400070BD70B5044694F82000012823D00120ED
:103E500084F82000022084F821002068056825F0FD
:103E6000010505602046FEF77FFD2068016841F0EE
:103E7000020101602068016841F0040101602068CE
:103E8000016841F0080101602068016841F001010A
:103E90000160002070BD022070BD31B500F01EF938
:103EA000044600F01BF90099001B8842F9D338BD85
:103EB0002DE9F84F00230024DFF8DC914FF00F08C4
:103EC00009F1040A0AF1040B0BF1040E0127A740C3
:103ED0000A683A40BA4275D1DFF8C0C14D68A5EB17
:103EE0000C0665452BD00DDC032D34D005DC35B335
:103EF000012D19D0022D2FD11BE0112D16D0122D1E
:103F00002AD119E0B6F5881F19D006DCB6F5803F36
:103F100015D0B6F5801F1FD111E0B6F5001F0ED0E9
:103F2000B6F5041F18D10AE0CB6815E0CB681B1D5D
:103F300012E0CB6808330FE0CB680C330CE08B68E1
:103F400023B1012B04D00823476105E0042303E0DB
:103F50000823076100E00023FF2A01D8054601E09D
:103F600000F1040502D84FEA840603E0A4F1080634
:103F70004FEA86062F6808FA06FC27EA0C0703FAC0
:103F800006F647EA06072F604D68ED007ED5444DE2
:103F9000AE6946F00106AE61AD6905F00105009518
:103FA000404D24F003067719BE68A5072D0F08FAC7
:103FB00005FC26EA0C06DFF8F0C0604503D14FF09F
:103FC000000C25E062E0DFF8E4C0604502D14FF06C
:103FD000010C1DE0DFF8D8C0604502D14FF0020CA3
:103FE00016E0DFF8D0C0604502D14FF0030C0FE0BF
:103FF000DFF8C4C0604502D14FF0040C08E0DFF8E0
:10400000BCC0604502D14FF0050C01E04FF0060C3A
:104010000CFA05FC4CEA060CC7F808C04D68ED0325
:1040200005D5D9F800501543C9F8005004E0D9F877
:1040300000509543C9F800504D68AD0305D5DAF836
:1040400000501543CAF8005004E0DAF800509543D8
:10405000CAF800504D68ED0205D5DBF80050154355
:10406000CBF8005004E0DBF800509543CBF800504B
:104070004D68AD0205D5DEF800501543CEF800506E
:1040800004E0DEF800509543CEF80050641C102C7C
:10409000FFF41CAFBDE8F88F0004014000001110D0
:1040A000001002400000014000080140000C0140E7
:1040B000001001400014014000180140001C0140A4
:1040C0008068084201D00120704700207047002A14
:1040D00001D001617047090401617047014800681F
:1040E000704700000000002002480168491C016080
:1040F000704700000000002010B50748016841F03B
:1041000010010160032000F07DF8002000F006F8A7
:1041100000F016F8002010BD0020024010B5044643
:1041200000F00CFB4FF47A72B0FBF2F001F0D6F81D
:1041300000222146501E00F045F8002010BD00006E
:1041400008B51848816941F001018161806900F07A
:1041500001000090032000F055F8002211466FF096
:104160000B0000F02FF8002211466FF00A0000F05B
:1041700029F8002211466FF0090000F023F8002210
:104180001146101F00F01EF800221146501E00F0CC
:1041900019F80548416821F0E06141F00071416083
:1041A00008BD0000001002400000014000F01F02A6
:1041B000012191404009800000F1E020C0F8001189
:1041C00070470000F0B40D460D4B1B68C3F302238B
:1041D000C3F10704042C00D90424191D072901D2B6
:1041E000002300E0DB1E012606FA04F1491E2940E7
:1041F00099409E40761E16403143F0BC04F0C5B98C
:104200000CED00E000F00701054A10684FF6FF03CF
:10421000184040EA0120034908431060704700003D
:104220000CED00E00000FA050120010291FAA1F175
:10423000024AB1FA81F142F82100704700000E42B3
:1042400010B586B001463CA090E81C00C068CDE9DE
:104250000334029205903CA00068019000203B4C82
:10426000042946D015DC01294DD002290FD100F0D8
:1042700095FA61684FF4804292FAA2F201F440414B
:10428000B2FA82F2D140491C4900B0FBF1F006B00D
:1042900010BD082932D01029F9D161682268D201F5
:1042A000F5D54FF4701292FAA2F201F47010B2FA3E
:1042B00082F2D04002AA105CC90310D561684FF4A5
:1042C000003292FAA2F201F40031B2FA82F2D14045
:1042D00001AA515C1E4AB2FBF1F1484301E01D49BD
:1042E000484361684902D2D440000321B0FBF1F099
:1042F000CDE706B0BDE8104000F066BA06B0BDE8F4
:10430000104000F061BA216AC1F30122012A03D1F1
:10431000890701D5D003BAE7022A05D1616A890766
:1043200002D549F64040B2E7032AB0D1216889039B
:10433000ADD54FF22440AAE7020304050607080999
:104340000A0B0C0D0E0F10100102000000100240AD
:1043500000127A0000093D002DE9F8430446464F5B
:104360002078C00774D0F86940F08050F861F8698F
:1043700000F080500090414D286840F48070286023
:10438000FFF7ACFE064607E0FFF7A8FE801B642897
:1043900002D90320BDE8F8832868C005F4D5386A3F
:1043A000A18800F4407001F44071884250D0386A0E
:1043B00020F440704FF4803292FAA2F1B1FA81F108
:1043C0008B002F494FF001080B44C3F8008492FA88
:1043D000A2F2B2FA82F201EB82010023C1F80034AA
:1043E000386280072ED5FFF779FE064641F28839FC
:1043F000022506E0FFF772FE801B484501D9032025
:10440000C8E795FAA5F0B0FA80F040F040014046C8
:10441000B8EB511F01D139680BE095FAA5F1B1FA5B
:1044200081F141F04001B5EB511F01D1396A00E043
:10443000796A95FAA5F2B2FA82F202F01F02904070
:104440000142D7D0386A616820F44070084338626E
:104450002078800705D57868A16820F4404008439B
:1044600078602078C00605D57868616920F48000FE
:104470000843786000208DE7001002400070004083
:10448000000042422DE9F04704460F46DFF8A492AF
:10449000D9F80000A84D00F00701012043044606AA
:1044A0004FF0020C41F28838B9426FD2D9F80010AF
:1044B00021F007013943C9F80010D9F8001001F0C4
:1044C0000701B94201D0BDE8F0872178890705D5F9
:1044D0006968A26821F0F001114369602178C90779
:1044E00061D0616801290BD002291FD09CFAACF27F
:1044F000B2FA82F242F0200252092DD02A682CE052
:1045000093FAA3F2B2FA82F242F02002520901D0E9
:104510002A6800E06A6A93FAA3F3B3FA83F303F01C
:104520001F039840024223D10120CCE796FAA6F25D
:10453000B2FA82F242F02002520901D02A6800E069
:104540006A6A96FAA6F3B3FA83F303F01F0398405E
:1045500002420DD10120B6E76A6A9CFAACF3B3FAC5
:1045600083F303F01F039840024201D10120AAE720
:10457000686820F0030008436860FFF7AFFD064657
:10458000606801280AD0022815D021E025E0FFF755
:10459000A5FD801B404501D9032094E76868C0F35E
:1045A00081000128F3D1ADE0FFF798FD801B404565
:1045B00001D9032087E76868C0F381000228F3D19E
:1045C000A0E0FFF78BFD801B404501D903207AE76F
:1045D000686810F00C0FF4D194E02178890705D5B4
:1045E0006968A26821F0F001114369602178C90768
:1045F00079D0616801290BD002291FD09CFAACF256
:10460000B2FA82F242F0200252092DD02A682CE040
:1046100093FAA3F2B2FA82F242F02002520901D0D8
:104620002A6800E06A6A93FAA3F3B3FA83F303F00B
:104630001F039840024223D1012044E796FAA6F2D4
:10464000B2FA82F242F02002520901D02A6800E058
:104650006A6A96FAA6F3B3FA83F303F01F0398404D
:1046600002420DD101202EE76A6A9CFAACF3B3FA3C
:1046700083F303F01F039840024201D1012022E797
:10468000686820F0030008436860FFF727FD0646CE
:104690006068012809D0022814D020E0FFF71EFD31
:1046A000801B404501D903200DE76868C0F38100F5
:1046B0000128F3D117E0FFF711FD801B404501D918
:1046C000032000E76868C0F381000228F3D10AE004
:1046D000FFF704FD801B404501D90320F3E668681D
:1046E00010F00C0FF4D1D9F8000020F00700384387
:1046F000C9F80000D9F8000000F00700B84201D066
:104700000120E0E62078400705D56868E16820F4DC
:10471000E060084368602078000706D56868216972
:1047200020F4605040EAC10068600020FFF7F6FC0A
:104730000020C8E6002002400010024000B500F052
:1047400043F808494968F02292FAA2F201F0F00118
:10475000B2FA82F2D140044A515CC8400349086071
:1047600000BD00000010024014F401080C000020FD
:1047700000B5FFF7E3FF074949684FF4E06292FA9A
:10478000A2F201F4E061B2FA82F2D140024A515C35
:10479000C84000BD0010024014F4010800B5FFF746
:1047A000CDFF074949684FF4605292FAA2F201F432
:1047B0006051B2FA82F2D140024A515CC84000BD59
:1047C0000010024014F4010810B585B01AA0D0E919
:1047D0000031D0E90220CDE90131CDE903201AA052
:1047E00000680090194B5968194801F00C02042A1E
:1047F0001DD0082A1BD14FF4701494FAA4F401F4CC
:104800007012B4FA84F4E24001ACA25CC90310D582
:1048100059684FF4003393FAA3F301F40031B3FA6B
:1048200083F3D9401DF80110B0FBF1F0504305B0FF
:1048300010BD08485043FAE70203040506070809BB
:104840000A0B0C0D0E0F10100102000000100240A8
:1048500000127A0000093D002DE9F84F0446F94D99
:1048600020784FF00106C00775D068687704C0F360
:104870008100012807D06868C0F3810002281DD19B
:104880006868C0031AD597FAA7F0B0FA80F040F034
:104890002000400901D0286800E0686A97FAA7F173
:1048A000B1FA81F101F01F0206FA02F1084252D07A
:1048B000606800284FD10120BDE8F88F286820F4F7
:1048C00080302860286820F480202860FFF706FCEC
:1048D000804607E0FFF702FCA0EB0800642801D93E
:1048E0000320E9E797FAA7F0B0FA80F040F0200043
:1048F000400901D0286800E0686A97FAA7F1B1FA88
:1049000081F101F01F0106FA01F10842E2D160686D
:10491000B0F5803F11D0A8B1B0F5A02F1CD0286809
:1049200020F480302860286820F4802028606068A7
:10493000C8B3FFF7D3FB80461FE0286840F48030FF
:104940002860F4E7286820F480302860286820F484
:1049500080202860EBE748E0286840F48020286049
:10496000286840F480302860E1E7FFF7B7FBA0EB50
:104970000800642801D903209EE797FAA7F0B0FA4F
:1049800080F040F02000400901D0286800E0686A0B
:1049900097FAA7F1B1FA81F101F01F0106FA01F1CE
:1049A0000842E2D021E0FFE7FFF798FB804607E0EE
:1049B000FFF794FBA0EB0800642801D903207BE7F4
:1049C00097FAA7F0B0FA80F040F02000400901D03B
:1049D000286800E0686A97FAA7F1B1FA81F101F05E
:1049E0001F0106FA01F10842E2D12078DFF858826F
:1049F00080074FF0000B4FF0020732D568684FF088
:104A0000F80A10F00C0F07D06868C0F38100022884
:104A100028D16868C00325D497FAA7F0B0FA80F0CF
:104A200040F02000400901D0286800E0686A97FA49
:104A3000A7F1B1FA81F101F01F0106FA01F1084274
:104A400004D02069012801D0012035E728689AFAAE
:104A5000AAF26169B2FA82F220F0F80091400843AC
:104A600028605CE0206990B396FAA6F0B0FA80F076
:104A700048F82060FFF732FB814607E0FFF72EFB86
:104A8000A0EB0900022801D9032015E797FAA7F047
:104A9000B0FA80F040F02000400901D0286800E022
:104AA000686A97FAA7F1B1FA81F101F01F0106FADD
:104AB00001F10842E2D028689AFAAAF26169B2FAD2
:104AC00082F220F0F80091400843286027E0FFE7D9
:104AD00096FAA6F0B0FA80F048F820B0FFF7FEFA98
:104AE000814607E0FFF7FAFAA0EB0900022801D996
:104AF0000320E1E697FAA7F0B0FA80F040F020003A
:104B0000400901D0286800E0686A97FAA7F1B1FA75
:104B100081F101F01F0106FA01F10842E2D120788B
:104B2000000770D5A069C0B396FAA6F0B0FA80F07D
:104B300008EB8000C0F88064FFF7D0FA814607E0F8
:104B4000FFF7CCFAA0EB0900022801D90320B3E655
:104B500097FAA7F0B0FA80F040F06000B6EB501F73
:104B600001D128680BE097FAA7F0B0FA80F040F086
:104B70006000B7EB501F01D1286A00E0686A97FA1D
:104B8000A7F1B1FA81F101F01F0206FA02F1084221
:104B9000D6D00120FFF781F935E0FFE796FAA6F0BD
:104BA000B0FA80F008EB8000C0F880B4FFF796FA06
:104BB000814607E0FFF792FAA0EB0900022801D92D
:104BC000032079E697FAA7F0B0FA80F040F0600091
:104BD000B6EB501F01D128680BE097FAA7F0B0FAA6
:104BE00080F040F06000B7EB501F01D1286A00E070
:104BF000686A97FAA7F1B1FA81F101F01F0206FA8B
:104C000002F10842D6D12078400770D5E86940F01B
:104C10008050E861E86900F080500090DFF82CA037
:104C2000DAF8000040F48070CAF80000FFF756FA86
:104C300081460DE0FFF752FAA0EB0900642807D97E
:104C4000032039E60010024000004242007000409C
:104C5000DAF80000C005EDD5286A20F001002862CE
:104C6000286A20F004002862FFF738FA814641F2F2
:104C7000883A07E0FFF732FAA0EB0900504501D966
:104C8000032019E697FAA7F0B0FA80F040F0400050
:104C9000B6EB501F01D128680BE097FAA7F0B0FAE5
:104CA00080F040F04000B7EB501F01D1286A00E0CF
:104CB000686A97FAA7F1B1FA81F101F01F0106FACB
:104CC00001F10842D6D1E068012811D0A8B1052829
:104CD0001CD0286A20F001002862286A20F0040015
:104CE0002862E068C8B3FFF7F9F981461FE06EE07B
:104CF000286A40F001002862F3E7286A20F00100EA
:104D00002862286A20F004002862EAE7286A40F056
:104D100004002862286A40F001002862E1E7FFF7FA
:104D2000DDF9A0EB0900504501D90320C4E597FA4D
:104D3000A7F0B0FA80F040F04000B6EB501F01D170
:104D400028680CE097FAA7F0B0FA80F040F0400035
:104D5000B7EB501F02D1286A01E00BE0686A97FAAE
:104D6000A7F1B1FA81F101F01F0206FA02F108423F
:104D7000D5D02CE0FFF7B2F9814607E0FFF7AEF996
:104D8000A0EB0900504501D9032095E597FAA7F05B
:104D9000B0FA80F040F04000B6EB501F01D1286817
:104DA0000BE097FAA7F0B0FA80F040F04000B7EBC4
:104DB000501F01D1286A00E0686A97FAA7F1B1FA9A
:104DC00081F101F01F0206FA02F10842D6D1E06932
:104DD00080B36968C1F38101022970D04FF08079F6
:104DE0004FF00077022809D099FAA9F0B0FA80F0C4
:104DF00048F820B0FFF772F9044668E099FAA9F084
:104E0000B0FA80F048F820B0FFF768F9824607E072
:104E1000FFF764F9A0EB0A00022801D903204BE553
:104E200097FAA7F0B0FA80F040F02000400902D0D5
:104E3000286801E060E0686A97FAA7F1B1FA81F1A9
:104E400001F01F0106FA01F10842E1D1206AB0F534
:104E5000803F05D16868A16820F40030084368608D
:104E6000D4E908010843696821F4741108436860B3
:104E700099FAA9F0B0FA80F048F82060FFF72EF90F
:104E8000044606E0FFF72AF9001B022801D9032097
:104E900012E597FAA7F0B0FA80F040F02000400940
:104EA00001D0296800E0696A97FAA7F0B0FA80F0AB
:104EB00000F01F0006FA00F00142E3D01CE01DE004
:104EC000FFF70CF9001B022801D90320F4E497FA3C
:104ED000A7F0B0FA80F040F02000400901D0296826
:104EE00000E0696A97FAA7F0B0FA80F000F01F00BE
:104EF00006FA00F00142E3D10020DDE40120DBE40A
:104F0000024800EB8100006880B27047006C0040EE
:104F1000024800EB810091B201607047006C0040D4
:104F2000F8B505460C46164600200090002D08D026
:104F30003CB100226946284600F01BF818B1012058
:104F4000F8BD0120F8BD287B2070E87BE070697B0C
:104F50006170A97BA17056B104F0EFFFE07060783A
:104F600004F0EBFF6070A07804F0E7FFA070002071
:104F7000F8BD2DE9F04105460C461646002D07D038
:104F800034B128684068400704D50120BDE8F081AD
:104F90000120FBE7284605F08EF84FF46162B0FB74
:104FA000F2F1B0FBF2F302FB13073C23B7FBF3F77C
:104FB0006770B0FBF2F702FB1700B0FBF3F203FBE4
:104FC0001200A07018290CD31820B1FBF0F2B1FB2D
:104FD000F0F300FB131020701146284604F0B8FFD0
:104FE00000E021705EB1207804F0A7FF20706078A7
:104FF00004F0A3FF6070A07804F09FFFA070002071
:10500000C4E7000070B50446002C03D0607C002685
:1050100010B105E0012070BD2674204600F04CF868
:1050200002206074204600F02BF9042510B165744D
:10503000012070BD204604F0ECFF10B16574012022
:1050400070BD2068416821F007014160A06820B16F
:105050001848016821F0010101601648001F01682D
:10506000A26821F46071114301606068411C04D1A1
:105070000120FFF7E5F898B1401E21688A6822F008
:105080000F0242EA10428A602168CA6860F30F0288
:10509000CA60204604F0D7FF28B16574012070BDB6
:1050A0006574012070BDE67301206073A0736074A5
:1050B000002070BD306C004008B500680C49884283
:1050C00015D1FFF7B1F80B48C16941F00061C1612A
:1050D000C06900F0006000900120C10391FAA1F1C5
:1050E000054AB1FA81F102EB8101C1F8000408BD63
:1050F0000028004000100240000042422DE9F0412B
:1051000004460D46002C3BD0C5B3207C012839D085
:1051100001272774022060748AB3E87804F004FF42
:10512000E073687804F000FF6073A87804F0FCFE78
:10513000A073A27B617BE07B04F0DDFF207328700D
:10514000204604F0B8FF0546A27B617BE07B05F0BA
:1051500033F805444FF46160B5FBF0F000261828E1
:105160002BD92946204605F010F84FF0040890B1DD
:1051700084F8118026740120BDE8F08100E003E08E
:105180000120F9E70220F7E7E878E07368786073B8
:10519000A878A073CDE7204604F086FF411C0CD010
:1051A000A8420AD207490144204604F0D7FF20B1A3
:1051B00084F8118026740120DEE7677426740020CD
:1051C000DAE70000805101002DE9F04104460D4668
:1051D000002C28D03DB3207C012826D0012626743F
:1051E000022060741AB3287804F09EFE4FF46161C7
:1051F00000FB01F7687804F097FEC0EB001007EBA6
:105200008007A87804F090FE3D182946204604F057
:10521000BCFF00274FF00408A8B184F81180277460
:105220000120BDE8F0810120FBE70220F9E72978A1
:105230004FF4616041436878C0EB001001EB8000DF
:10524000A9784518E1E72068416821F0050141602F
:10525000204604F029FF411C0CD0A8420AD207497D
:105260000144204604F07AFF20B184F811802774AD
:105270000120D6E7667427740020D2E78051010030
:1052800070B50446002C0BD0206841684FF6F772C9
:1052900011404160FEF722FF05464FF47A7608E0A0
:1052A000012070BDFEF71AFF401BB04201D9032058
:1052B00070BD206840680007F4D5002070BD4FF035
:1052C000E021042804D0086920F004000861704738
:1052D000086940F0040008617047704710B5401E2F
:1052E000B0F1807F01D3012010BD4FF0E024606158
:1052F0000F21601703F049F90020A0610720206109
:10530000002010BD10B5FFF7E8FF10BD704738B59D
:10531000044620680168C1F30001C26802F480728B
:10532000002904D01AB1216C41F001012164016807
:10533000C1F34002416901F0010122B119B1226CAF
:1053400042F0040222640268C2F3800222B119B161
:10535000226C42F0020222640268C2F3C00222B14F
:1053600019B1216C41F0080121640168C1F34011B9
:10537000C06800F0200019B110B1204609F06FFCA0
:1053800020680168C1F3C011C06800F0800019B145
:1053900010B1204609F026FD20680168C1F3801194
:1053A000C06800F0400019B110B1204609F042FC7D
:1053B000206C002809D02068016840680090012016
:1053C00084F83D002046FFF7A1FF38BD70B50446C4
:1053D000002C04D094F83D00002510B106E0012017
:1053E00070BD84F83C50204600F020F8022084F87C
:1053F0003D002068C16821F40051C160204609F0D9
:105400006BFC2068016921F49041016120684169C9
:1054100021F02A0141612068C16841F40051C16056
:105420002564012084F83D00002070BDF0B50068BF
:10543000504E0024504902220323504D85B0B04203
:105440001ED1C86940F40020C861C869039300F404
:10545000002004900815CDE9000269462846FEF7B1
:1054600027FDE814CDE90004694628460294FEF7BA
:105470001FFD002211463420FEF7A4FE342021E057
:105480003F4F404EB84221D1C86940F48010C861F6
:10549000C869694600F480100490B014CDE9000298
:1054A00003932846FEF704FD0420CDE90004694675
:1054B00030460294FEF7FCFC002211463520FEF730
:1054C00081FE3520FEF772FE05B0F0BDDFF8B8C0F2
:1054D00040272E4D604524D1886940F48040886182
:1054E00088692B4E00F48040CDE90330CDE900728D
:1054F00069463046FEF7DCFC8020CDE900046946B1
:1055000030460294FEF7D4FC686840F0706040F0CA
:1055100004006860002211462520FEF753FE252076
:10552000D0E7DFF870C06045CED1C86940F40030E4
:10553000C861C869694600F4003004902020CDE9B4
:10554000000203933046FEF7B3FCCDE900746946D0
:1055500030460294FEF7ACFC686840F0706040F0A2
:1055600008006860002211462620FEF72BFE262048
:10557000A8E70000004C004000100240001001406D
:10558000005000400014014000380140000001407C
:10559000000C01400044004090F83D30012B03D046
:1055A000122B01D002207047A1B19AB1816282858D
:1055B00002860021C185016490F83D1012290BD0AC
:1055C000222180F83D100068C16841F02001C160CF
:1055D0000020704701207047322180F83D10F2E72B
:1055E000704790F83D30012B03D0222B01D00220D0
:1055F0007047E1B1DAB190F83C30012B19D00123AA
:1056000080F83C3001628284C2840021016490F8F9
:105610003D20222A0FD0122280F83D2080F83C1035
:105620000068C16841F08001C1600020704701201E
:10563000704702207047322280F83D20EEE7704725
:1056400000224FF480510148FEF741BD0014014093
:10565000012211030148FEF73ABD00000014014089
:10566000FEE710B502F02CF802F014F906F0F6FA95
:10567000BDE8104002F052BF0B48002180F89012A4
:1056800080F891124FF42572A0F89222A0F8BE1271
:10569000A0F8C01240F29C42A0F8C222034AA2F82D
:1056A0008C10807D09F0E8BBE02D0020B43500208F
:1056B0002DE9FE4FDFF884A14FF00009BAF88C0005
:1056C000022804D8AAF88C900020BDE8FE8FCDF8FF
:1056D000089000250026002702A959A0FDF740FCEC
:1056E00001280FD1BDF808000A381FFA80F8534886
:1056F000302202A99030FDF7DDFABDF80800A04283
:1057000000D904460020029002A950A0FDF728FC11
:10571000DFF8409101280ED1012502A901A8FDF76B
:105720007BFA012802D10198C9F81401BDF80800DC
:10573000A04200D904460020029002A946A0FDF72D
:105740000FFC01280ED1012602A901A8FDF764FA79
:10575000012802D10198A9F81801BDF80800A0425B
:1057600000D904460020029002A93FA0FDF7F8FBF3
:10577000012812D1BDF80800401E80B20090012718
:1057800002A901A8FDF748FA012801D1DDF804B00B
:10579000BDF80800A04200D90446012D4BD1012ECE
:1057A00049D1012F47D10026029602A930A0FDF76A
:1057B000D7FB01283FD10025BDF80800B9F8182112
:1057C0000AEB00012348C0311030074608F09EFD67
:1057D0000098A0EB08010AEB0800491CC03009F052
:1057E00089FD58450CD1D9F80810D9F81401884220
:1057F00006D1B9F81801B9F80C10884200D101257A
:10580000012D09D1B9F81811384609F073FDC9F80E
:105810001C01012089F81201BDF80800A04200D93E
:105820000446BAF88C00A04203D9001BAAF88C00E9
:1058300001E0AAF88C60002047E70000B4350020A2
:1058400046494C455F4E414D453A0000494E44455E
:10585000583A0000485D0020425954455F4E554D6E
:105860004245523A0000000043484B53554D3A0020
:10587000434F4E54454E543A000000002DE9FC477A
:10588000DFF8E4804FF00009B8F88C00022804D853
:10589000A8F88C900020BDE8FC87CDF80490002487
:1058A00000250026002701A930A0FDF759FB01289B
:1058B0000ED1012501A96846FDF774F9012802D12E
:1058C0000098C8F81400BDF80400002800D9044668
:1058D000CDF8049001A928A0FDF742FB01280BD1C7
:1058E00001262148302201A99030FDF7E3F9BDF8E7
:1058F0000400A04200D90446CDF8049001A921A0DB
:10590000FDF72EFBDFF888A001280ED1012701A9A1
:105910006846FDF781F9012802D10098CAF8040011
:10592000BDF80400A04200D90446012D1AD1012E71
:1059300018D1012F16D101208AF811010A49154802
:105940005631FAF713FE1349B8F8140012390882D9
:10595000B8F88C00A04203D9001BA8F88C0001E025
:10596000A8F88C90012096E7B4350020534F465498
:105970005F5645523A00000046494C455F4E414D46
:10598000453A000046494C455F53495A453A0000A4
:10599000485D00206E4C00207CB5234D0026B5F8F4
:1059A0008C00022803D8A5F88C6000207CBD0196ED
:1059B00001A91EA0FDF7D4FA012803D101A9684668
:1059C000FDF7F0F8019601A91BA0FDF7C9FA01281F
:1059D00008D101A96846FDF7E5F8BDF80400A0422A
:1059E00000D90446019601A915A0FDF7B9FA0128CE
:1059F00017D101A914A0FDF7B3FA012811D1154957
:105A000081F81301BDF80400A04200D90446B5F89E
:105A10008C00A04203D9001BA5F88C0001E0A5F87A
:105A20008C6000207CBD0000B435002045525243FC
:105A30004F44453A000000004552524D53473A004A
:105A400041434B3A00000000757067726164655F06
:105A5000656E6400485D0020810701D0002070471A
:105A60006421B0FBF1F201FB120109B10120704782
:105A70004FF4C871B0FBF1F201FB120008B1002035
:105A8000704701207047000010B5FE4800780128DB
:105A900039D104241EE004EBC400FB4901EB4000B3
:105AA000008A00280BDD04EBC40001EB4000008AF3
:105AB000401E04EBC401F44A02EB41010882F348A2
:105AC000005D502804DAF148005D401CEF4908559C
:105AD000601CC4B2EE480078042101EB8000A042B3
